{
  "_format": "hh-sol-artifact-1",
  "contractName": "EvenlyDistribute",
  "sourceName": "contracts/EvenlyDistribute.sol",
  "abi": [
    {
      "inputs": [],
      "stateMutability": "nonpayable",
      "type": "constructor"
    },
    {
      "anonymous": false,
      "inputs": [
        {
          "indexed": true,
          "internalType": "address",
          "name": "previousOwner",
          "type": "address"
        },
        {
          "indexed": true,
          "internalType": "address",
          "name": "newOwner",
          "type": "address"
        }
      ],
      "name": "OwnershipTransferred",
      "type": "event"
    },
    {
      "stateMutability": "payable",
      "type": "fallback"
    },
    {
      "inputs": [
        {
          "internalType": "address",
          "name": "",
          "type": "address"
        }
      ],
      "name": "balances",
      "outputs": [
        {
          "internalType": "uint256",
          "name": "",
          "type": "uint256"
        }
      ],
      "stateMutability": "view",
      "type": "function"
    },
    {
      "inputs": [
        {
          "internalType": "address",
          "name": "_address",
          "type": "address"
        }
      ],
      "name": "checkBalance",
      "outputs": [
        {
          "internalType": "uint256",
          "name": "",
          "type": "uint256"
        }
      ],
      "stateMutability": "view",
      "type": "function"
    },
    {
      "inputs": [
        {
          "internalType": "uint256",
          "name": "",
          "type": "uint256"
        }
      ],
      "name": "contributors",
      "outputs": [
        {
          "internalType": "address",
          "name": "",
          "type": "address"
        }
      ],
      "stateMutability": "view",
      "type": "function"
    },
    {
      "inputs": [],
      "name": "largestContribution",
      "outputs": [
        {
          "internalType": "uint256",
          "name": "",
          "type": "uint256"
        }
      ],
      "stateMutability": "view",
      "type": "function"
    },
    {
      "inputs": [],
      "name": "lockContract",
      "outputs": [],
      "stateMutability": "nonpayable",
      "type": "function"
    },
    {
      "inputs": [],
      "name": "lockContractOnTime",
      "outputs": [],
      "stateMutability": "nonpayable",
      "type": "function"
    },
    {
      "inputs": [],
      "name": "lockTime",
      "outputs": [
        {
          "internalType": "uint256",
          "name": "",
          "type": "uint256"
        }
      ],
      "stateMutability": "view",
      "type": "function"
    },
    {
      "inputs": [],
      "name": "locked",
      "outputs": [
        {
          "internalType": "bool",
          "name": "",
          "type": "bool"
        }
      ],
      "stateMutability": "view",
      "type": "function"
    },
    {
      "inputs": [],
      "name": "maxContribution",
      "outputs": [
        {
          "internalType": "uint256",
          "name": "",
          "type": "uint256"
        }
      ],
      "stateMutability": "view",
      "type": "function"
    },
    {
      "inputs": [],
      "name": "owner",
      "outputs": [
        {
          "internalType": "address",
          "name": "",
          "type": "address"
        }
      ],
      "stateMutability": "view",
      "type": "function"
    },
    {
      "inputs": [],
      "name": "renounceOwnership",
      "outputs": [],
      "stateMutability": "nonpayable",
      "type": "function"
    },
    {
      "inputs": [],
      "name": "resetGame",
      "outputs": [],
      "stateMutability": "nonpayable",
      "type": "function"
    },
    {
      "inputs": [],
      "name": "startTime",
      "outputs": [
        {
          "internalType": "uint256",
          "name": "",
          "type": "uint256"
        }
      ],
      "stateMutability": "view",
      "type": "function"
    },
    {
      "inputs": [],
      "name": "totalContributions",
      "outputs": [
        {
          "internalType": "uint256",
          "name": "",
          "type": "uint256"
        }
      ],
      "stateMutability": "view",
      "type": "function"
    },
    {
      "inputs": [],
      "name": "totalParticipants",
      "outputs": [
        {
          "internalType": "uint256",
          "name": "",
          "type": "uint256"
        }
      ],
      "stateMutability": "view",
      "type": "function"
    },
    {
      "inputs": [
        {
          "internalType": "address",
          "name": "newOwner",
          "type": "address"
        }
      ],
      "name": "transferOwnership",
      "outputs": [],
      "stateMutability": "nonpayable",
      "type": "function"
    },
    {
      "inputs": [
        {
          "internalType": "uint256",
          "name": "_newMax",
          "type": "uint256"
        }
      ],
      "name": "updateMax",
      "outputs": [],
      "stateMutability": "nonpayable",
      "type": "function"
    },
    {
      "inputs": [],
      "name": "withdraw",
      "outputs": [],
      "stateMutability": "nonpayable",
      "type": "function"
    }
  ],
  "bytecode": "0x608060405234801561001057600080fd5b5061002d61002261006460201b60201c565b61006c60201b60201c565b68056bc75e2d631000006003819055506000600960006101000a81548160ff02191690831515021790555042600781905550610130565b600033905090565b60008060009054906101000a900473ffffffffffffffffffffffffffffffffffffffff169050816000806101000a81548173ffffffffffffffffffffffffffffffffffffffff021916908373ffffffffffffffffffffffffffffffffffffffff1602179055508173ffffffffffffffffffffffffffffffffffffffff168173ffffffffffffffffffffffffffffffffffffffff167f8be0079c531659141344cd1fd0a4f28419497f9722a3daafe3b4186f6b6457e060405160405180910390a35050565b6119528061013f6000396000f3fe60806040526004361061010d5760003560e01c8063753868e311610095578063a26dbf2611610064578063a26dbf26146105a6578063bb472219146105d1578063cf309012146105e8578063e317dc8614610613578063f2fde38b1461063e5761010e565b8063753868e31461050e57806378e97925146105255780638d3d6576146105505780638da5cb5b1461057b5761010e565b80633ccfd60b116100dc5780633ccfd60b14610463578063444a1cec1461047a578063465ab7db146104a35780635f515226146104ba578063715018a6146104f75761010e565b80630d6680871461039357806327e235e3146103be57806337c08923146103fb5780633cb5d100146104265761010e565b5b600960009054906101000a900460ff16158015610133575067016345785d8a00003410155b610172576040517f08c379a000000000000000000000000000000000000000000000000000000000815260040161016990611348565b60405180910390fd5b60035434600160003373ffffffffffffffffffffffffffffffffffffffff1673ffffffffffffffffffffffffffffffffffffffff168152602001908152602001600020546101c0919061147f565b1115610201576040517f08c379a00000000000000000000000000000000000000000000000000000000081526004016101f890611328565b60405180910390fd5b60003490506000600160003373ffffffffffffffffffffffffffffffffffffffff1673ffffffffffffffffffffffffffffffffffffffff1681526020019081526020016000205414156102ce57610264600160065461066790919063ffffffff16565b6006819055506002339080600181540180825580915050600190039060005260206000200160009091909190916101000a81548173ffffffffffffffffffffffffffffffffffffffff021916908373ffffffffffffffffffffffffffffffffffffffff1602179055505b6004548111156102e057806004819055505b61033281600160003373ffffffffffffffffffffffffffffffffffffffff1673ffffffffffffffffffffffffffffffffffffffff1681526020019081526020016000205461066790919063ffffffff16565b600160003373ffffffffffffffffffffffffffffffffffffffff1673ffffffffffffffffffffffffffffffffffffffff1681526020019081526020016000208190555061038a8160055461066790919063ffffffff16565b60058190555050005b34801561039f57600080fd5b506103a861067d565b6040516103b59190611448565b60405180910390f35b3480156103ca57600080fd5b506103e560048036038101906103e0919061107a565b610683565b6040516103f29190611448565b60405180910390f35b34801561040757600080fd5b5061041061069b565b60405161041d9190611448565b60405180910390f35b34801561043257600080fd5b5061044d600480360381019061044891906110a3565b6106a1565b60405161045a91906112b2565b60405180910390f35b34801561046f57600080fd5b506104786106e0565b005b34801561048657600080fd5b506104a1600480360381019061049c91906110a3565b6108cc565b005b3480156104af57600080fd5b506104b86109e2565b005b3480156104c657600080fd5b506104e160048036038101906104dc919061107a565b610a72565b6040516104ee9190611448565b60405180910390f35b34801561050357600080fd5b5061050c610abb565b005b34801561051a57600080fd5b50610523610b43565b005b34801561053157600080fd5b5061053a610c33565b6040516105479190611448565b60405180910390f35b34801561055c57600080fd5b50610565610c39565b6040516105729190611448565b60405180910390f35b34801561058757600080fd5b50610590610c3f565b60405161059d91906112b2565b60405180910390f35b3480156105b257600080fd5b506105bb610c68565b6040516105c89190611448565b60405180910390f35b3480156105dd57600080fd5b506105e6610c6e565b005b3480156105f457600080fd5b506105fd610e1f565b60405161060a91906112cd565b60405180910390f35b34801561061f57600080fd5b50610628610e32565b6040516106359190611448565b60405180910390f35b34801561064a57600080fd5b506106656004803603810190610660919061107a565b610e38565b005b60008183610675919061147f565b905092915050565b60085481565b60016020528060005260406000206000915090505481565b60055481565b600281815481106106b157600080fd5b906000526020600020016000915054906101000a900473ffffffffffffffffffffffffffffffffffffffff1681565b600960009054906101000a900460ff1661072f576040517f08c379a000000000000000000000000000000000000000000000000000000000815260040161072690611368565b60405180910390fd5b67016345785d8a0000600160003373ffffffffffffffffffffffffffffffffffffffff1673ffffffffffffffffffffffffffffffffffffffff1681526020019081526020016000205410156107b9576040517f08c379a00000000000000000000000000000000000000000000000000000000081526004016107b0906113a8565b60405180910390fd5b60006107d2600654600554610f3090919063ffffffff16565b90506000600160003373ffffffffffffffffffffffffffffffffffffffff1673ffffffffffffffffffffffffffffffffffffffff168152602001908152602001600020819055506000803373ffffffffffffffffffffffffffffffffffffffff16836040516108409061129d565b60006040518083038185875af1925050503d806000811461087d576040519150601f19603f3d011682016040523d82523d6000602084013e610882565b606091505b5091509150816108c7576040517f08c379a00000000000000000000000000000000000000000000000000000000081526004016108be90611428565b60405180910390fd5b505050565b6108d4610f46565b73ffffffffffffffffffffffffffffffffffffffff166108f2610c3f565b73ffffffffffffffffffffffffffffffffffffffff1614610948576040517f08c379a000000000000000000000000000000000000000000000000000000000815260040161093f906113c8565b60405180910390fd5b60045481101561098d576040517f08c379a0000000000000000000000000000000000000000000000000000000008152600401610984906113e8565b60405180910390fd5b67016345785d8a00008110156109d8576040517f08c379a00000000000000000000000000000000000000000000000000000000081526004016109cf90611388565b60405180910390fd5b8060038190555050565b62278d006007546109f3919061147f565b4210158015610a0f5750600960009054906101000a900460ff16155b610a4e576040517f08c379a0000000000000000000000000000000000000000000000000000000008152600401610a4590611408565b60405180910390fd5b6001600960006101000a81548160ff02191690831515021790555042600881905550565b6000600160008373ffffffffffffffffffffffffffffffffffffffff1673ffffffffffffffffffffffffffffffffffffffff168152602001908152602001600020549050919050565b610ac3610f46565b73ffffffffffffffffffffffffffffffffffffffff16610ae1610c3f565b73ffffffffffffffffffffffffffffffffffffffff1614610b37576040517f08c379a0000000000000000000000000000000000000000000000000000000008152600401610b2e906113c8565b60405180910390fd5b610b416000610f4e565b565b610b4b610f46565b73ffffffffffffffffffffffffffffffffffffffff16610b69610c3f565b73ffffffffffffffffffffffffffffffffffffffff1614610bbf576040517f08c379a0000000000000000000000000000000000000000000000000000000008152600401610bb6906113c8565b60405180910390fd5b600960009054906101000a900460ff1615610c0f576040517f08c379a0000000000000000000000000000000000000000000000000000000008152600401610c0690611308565b60405180910390fd5b6001600960006101000a81548160ff02191690831515021790555042600881905550565b60075481565b60035481565b60008060009054906101000a900473ffffffffffffffffffffffffffffffffffffffff16905090565b60065481565b610c76610f46565b73ffffffffffffffffffffffffffffffffffffffff16610c94610c3f565b73ffffffffffffffffffffffffffffffffffffffff1614610cea576040517f08c379a0000000000000000000000000000000000000000000000000000000008152600401610ce1906113c8565b60405180910390fd5b62093a80600854610cfb919061147f565b421015610d0757600080fd5b60005b600280549050811015610dd45760006001600060028481548110610d57577f4e487b7100000000000000000000000000000000000000000000000000000000600052603260045260246000fd5b9060005260206000200160009054906101000a900473ffffffffffffffffffffffffffffffffffffffff1673ffffffffffffffffffffffffffffffffffffffff1673ffffffffffffffffffffffffffffffffffffffff16815260200190815260200160002081905550600181610dcd919061147f565b9050610d0a565b5060006004819055506000600581905550600060068190555060026000610dfb9190611012565b6000600960006101000a81548160ff02191690831515021790555042600781905550565b600960009054906101000a900460ff1681565b60045481565b610e40610f46565b73ffffffffffffffffffffffffffffffffffffffff16610e5e610c3f565b73ffffffffffffffffffffffffffffffffffffffff1614610eb4576040517f08c379a0000000000000000000000000000000000000000000000000000000008152600401610eab906113c8565b60405180910390fd5b600073ffffffffffffffffffffffffffffffffffffffff168173ffffffffffffffffffffffffffffffffffffffff161415610f24576040517f08c379a0000000000000000000000000000000000000000000000000000000008152600401610f1b906112e8565b60405180910390fd5b610f2d81610f4e565b50565b60008183610f3e91906114d5565b905092915050565b600033905090565b60008060009054906101000a900473ffffffffffffffffffffffffffffffffffffffff169050816000806101000a81548173ffffffffffffffffffffffffffffffffffffffff021916908373ffffffffffffffffffffffffffffffffffffffff1602179055508173ffffffffffffffffffffffffffffffffffffffff168173ffffffffffffffffffffffffffffffffffffffff167f8be0079c531659141344cd1fd0a4f28419497f9722a3daafe3b4186f6b6457e060405160405180910390a35050565b50805460008255906000526020600020908101906110309190611033565b50565b5b8082111561104c576000816000905550600101611034565b5090565b60008135905061105f816118ee565b92915050565b60008135905061107481611905565b92915050565b60006020828403121561108c57600080fd5b600061109a84828501611050565b91505092915050565b6000602082840312156110b557600080fd5b60006110c384828501611065565b91505092915050565b6110d581611506565b82525050565b6110e481611518565b82525050565b60006110f760268361146e565b9150611102826115ac565b604082019050919050565b600061111a60288361146e565b9150611125826115fb565b604082019050919050565b600061113d602b8361146e565b91506111488261164a565b604082019050919050565b600061116060338361146e565b915061116b82611699565b604082019050919050565b600061118360268361146e565b915061118e826116e8565b604082019050919050565b60006111a6602c8361146e565b91506111b182611737565b604082019050919050565b60006111c960308361146e565b91506111d482611786565b604082019050919050565b60006111ec60208361146e565b91506111f7826117d5565b602082019050919050565b600061120f600083611463565b915061121a826117fe565b600082019050919050565b600061123260368361146e565b915061123d82611801565b604082019050919050565b6000611255604c8361146e565b915061126082611850565b606082019050919050565b600061127860198361146e565b9150611283826118c5565b602082019050919050565b61129781611544565b82525050565b60006112a882611202565b9150819050919050565b60006020820190506112c760008301846110cc565b92915050565b60006020820190506112e260008301846110db565b92915050565b60006020820190508181036000830152611301816110ea565b9050919050565b600060208201905081810360008301526113218161110d565b9050919050565b6000602082019050818103600083015261134181611130565b9050919050565b6000602082019050818103600083015261136181611153565b9050919050565b6000602082019050818103600083015261138181611176565b9050919050565b600060208201905081810360008301526113a181611199565b9050919050565b600060208201905081810360008301526113c1816111bc565b9050919050565b600060208201905081810360008301526113e1816111df565b9050919050565b6000602082019050818103600083015261140181611225565b9050919050565b6000602082019050818103600083015261142181611248565b9050919050565b600060208201905081810360008301526114418161126b565b9050919050565b600060208201905061145d600083018461128e565b92915050565b600081905092915050565b600082825260208201905092915050565b600061148a82611544565b915061149583611544565b9250827fffffffffffffffffffffffffffffffffffffffffffffffffffffffffffffffff038211156114ca576114c961154e565b5b828201905092915050565b60006114e082611544565b91506114eb83611544565b9250826114fb576114fa61157d565b5b828204905092915050565b600061151182611524565b9050919050565b60008115159050919050565b600073ffffffffffffffffffffffffffffffffffffffff82169050919050565b6000819050919050565b7f4e487b7100000000000000000000000000000000000000000000000000000000600052601160045260246000fd5b7f4e487b7100000000000000000000000000000000000000000000000000000000600052601260045260246000fd5b7f4f776e61626c653a206e6577206f776e657220697320746865207a65726f206160008201527f6464726573730000000000000000000000000000000000000000000000000000602082015250565b7f6c6f636b436f6e74726163743a20636f6e747261637420697320616c7265616460008201527f79206c6f636b6564000000000000000000000000000000000000000000000000602082015250565b7f436f6e747269627574653a2063616e6e6f7420636f6e74726962757465206d6f60008201527f7265207468616e206d6178000000000000000000000000000000000000000000602082015250565b7f436f6e747269627574653a2067616d65206973206c6f636b6564206f72206d7360008201527f672e76616c7565203c20302e3120657468657200000000000000000000000000602082015250565b7f77697468647261773a2067616d6520686173206e6f74206265656e206c6f636b60008201527f6564207965740000000000000000000000000000000000000000000000000000602082015250565b7f7570646174654d61783a205f6e65774d617820697320736d616c6c657220746860008201527f616e20302e312065746865720000000000000000000000000000000000000000602082015250565b7f77697468647261773a20796f7520617265206e6f7420656c696769626c65207460008201527f6f2077697468647261772066756e647300000000000000000000000000000000602082015250565b7f4f776e61626c653a2063616c6c6572206973206e6f7420746865206f776e6572600082015250565b50565b7f7570646174654d61783a205f6e65774d617820697320736d616c6c657220746860008201527f616e206c617267657374436f6e747269627574696f6e00000000000000000000602082015250565b7f6c6f636b436f6e74726163744f6e54696d653a2031206d6f6e7468206861732060008201527f6e6f7420706173736564206f722074686520636f6e747261637420697320616c60208201527f7265616479206c6f636b65640000000000000000000000000000000000000000604082015250565b7f77697468647261773a205472616e73666572204661696c656400000000000000600082015250565b6118f781611506565b811461190257600080fd5b50565b61190e81611544565b811461191957600080fd5b5056fea264697066735822122068aeaf4dab63ca0bb9fbd1858974ae57fdb3efa7b5acd01ec2366567fde81cfc64736f6c63430008040033",
  "linkReferences": {},
  "deployedLinkReferences": {}
}