{
  "_format": "hh-sol-artifact-1",
  "contractName": "EvenlyDistribute",
  "sourceName": "contracts/EvenlyDistribute.sol",
  "abi": [
    {
      "inputs": [],
      "stateMutability": "nonpayable",
      "type": "constructor"
    },
    {
      "anonymous": false,
      "inputs": [
        {
          "indexed": true,
          "internalType": "address",
          "name": "previousOwner",
          "type": "address"
        },
        {
          "indexed": true,
          "internalType": "address",
          "name": "newOwner",
          "type": "address"
        }
      ],
      "name": "OwnershipTransferred",
      "type": "event"
    },
    {
      "stateMutability": "payable",
      "type": "fallback"
    },
    {
      "inputs": [
        {
          "internalType": "address",
          "name": "",
          "type": "address"
        }
      ],
      "name": "balances",
      "outputs": [
        {
          "internalType": "uint256",
          "name": "",
          "type": "uint256"
        }
      ],
      "stateMutability": "view",
      "type": "function"
    },
    {
      "inputs": [
        {
          "internalType": "address",
          "name": "_address",
          "type": "address"
        }
      ],
      "name": "checkBalance",
      "outputs": [
        {
          "internalType": "uint256",
          "name": "",
          "type": "uint256"
        }
      ],
      "stateMutability": "view",
      "type": "function"
    },
    {
      "inputs": [],
      "name": "largestContribution",
      "outputs": [
        {
          "internalType": "uint256",
          "name": "",
          "type": "uint256"
        }
      ],
      "stateMutability": "view",
      "type": "function"
    },
    {
      "inputs": [],
      "name": "lockContract",
      "outputs": [],
      "stateMutability": "nonpayable",
      "type": "function"
    },
    {
      "inputs": [],
      "name": "lockContractOnTime",
      "outputs": [],
      "stateMutability": "nonpayable",
      "type": "function"
    },
    {
      "inputs": [],
      "name": "lockTime",
      "outputs": [
        {
          "internalType": "uint256",
          "name": "",
          "type": "uint256"
        }
      ],
      "stateMutability": "view",
      "type": "function"
    },
    {
      "inputs": [],
      "name": "locked",
      "outputs": [
        {
          "internalType": "bool",
          "name": "",
          "type": "bool"
        }
      ],
      "stateMutability": "view",
      "type": "function"
    },
    {
      "inputs": [],
      "name": "maxContribution",
      "outputs": [
        {
          "internalType": "uint256",
          "name": "",
          "type": "uint256"
        }
      ],
      "stateMutability": "view",
      "type": "function"
    },
    {
      "inputs": [],
      "name": "owner",
      "outputs": [
        {
          "internalType": "address",
          "name": "",
          "type": "address"
        }
      ],
      "stateMutability": "view",
      "type": "function"
    },
    {
      "inputs": [],
      "name": "renounceOwnership",
      "outputs": [],
      "stateMutability": "nonpayable",
      "type": "function"
    },
    {
      "inputs": [],
      "name": "resetGame",
      "outputs": [],
      "stateMutability": "nonpayable",
      "type": "function"
    },
    {
      "inputs": [],
      "name": "startTime",
      "outputs": [
        {
          "internalType": "uint256",
          "name": "",
          "type": "uint256"
        }
      ],
      "stateMutability": "view",
      "type": "function"
    },
    {
      "inputs": [],
      "name": "totalContributions",
      "outputs": [
        {
          "internalType": "uint256",
          "name": "",
          "type": "uint256"
        }
      ],
      "stateMutability": "view",
      "type": "function"
    },
    {
      "inputs": [],
      "name": "totalParticipants",
      "outputs": [
        {
          "internalType": "uint256",
          "name": "",
          "type": "uint256"
        }
      ],
      "stateMutability": "view",
      "type": "function"
    },
    {
      "inputs": [
        {
          "internalType": "address",
          "name": "newOwner",
          "type": "address"
        }
      ],
      "name": "transferOwnership",
      "outputs": [],
      "stateMutability": "nonpayable",
      "type": "function"
    },
    {
      "inputs": [
        {
          "internalType": "uint256",
          "name": "_newMax",
          "type": "uint256"
        }
      ],
      "name": "updateMax",
      "outputs": [],
      "stateMutability": "nonpayable",
      "type": "function"
    },
    {
      "inputs": [],
      "name": "withdraw",
      "outputs": [],
      "stateMutability": "nonpayable",
      "type": "function"
    }
  ],
  "bytecode": "0x608060405234801561001057600080fd5b5061002d61002261006460201b60201c565b61006c60201b60201c565b68056bc75e2d631000006003819055506000600960006101000a81548160ff02191690831515021790555042600781905550610130565b600033905090565b60008060009054906101000a900473ffffffffffffffffffffffffffffffffffffffff169050816000806101000a81548173ffffffffffffffffffffffffffffffffffffffff021916908373ffffffffffffffffffffffffffffffffffffffff1602179055508173ffffffffffffffffffffffffffffffffffffffff168173ffffffffffffffffffffffffffffffffffffffff167f8be0079c531659141344cd1fd0a4f28419497f9722a3daafe3b4186f6b6457e060405160405180910390a35050565b61181f8061013f6000396000f3fe6080604052600436106101025760003560e01c8063753868e311610095578063a26dbf2611610064578063a26dbf261461055e578063bb47221914610589578063cf309012146105a0578063e317dc86146105cb578063f2fde38b146105f657610103565b8063753868e3146104c657806378e97925146104dd5780638d3d6576146105085780638da5cb5b1461053357610103565b8063444a1cec116100d1578063444a1cec14610432578063465ab7db1461045b5780635f51522614610472578063715018a6146104af57610103565b80630d6680871461038857806327e235e3146103b357806337c08923146103f05780633ccfd60b1461041b57610103565b5b600960009054906101000a900460ff16158015610128575067016345785d8a00003410155b610167576040517f08c379a000000000000000000000000000000000000000000000000000000000815260040161015e9061125e565b60405180910390fd5b60035434600160003373ffffffffffffffffffffffffffffffffffffffff1673ffffffffffffffffffffffffffffffffffffffff168152602001908152602001600020546101b59190611375565b11156101f6576040517f08c379a00000000000000000000000000000000000000000000000000000000081526004016101ed9061123e565b60405180910390fd5b60003490506000600160003373ffffffffffffffffffffffffffffffffffffffff1673ffffffffffffffffffffffffffffffffffffffff1681526020019081526020016000205414156102c357610259600160065461061f90919063ffffffff16565b6006819055506002339080600181540180825580915050600190039060005260206000200160009091909190916101000a81548173ffffffffffffffffffffffffffffffffffffffff021916908373ffffffffffffffffffffffffffffffffffffffff1602179055505b6004548111156102d557806004819055505b61032781600160003373ffffffffffffffffffffffffffffffffffffffff1673ffffffffffffffffffffffffffffffffffffffff1681526020019081526020016000205461061f90919063ffffffff16565b600160003373ffffffffffffffffffffffffffffffffffffffff1673ffffffffffffffffffffffffffffffffffffffff1681526020019081526020016000208190555061037f8160055461061f90919063ffffffff16565b60058190555050005b34801561039457600080fd5b5061039d610635565b6040516103aa919061133e565b60405180910390f35b3480156103bf57600080fd5b506103da60048036038101906103d59190610fb3565b61063b565b6040516103e7919061133e565b60405180910390f35b3480156103fc57600080fd5b50610405610653565b604051610412919061133e565b60405180910390f35b34801561042757600080fd5b50610430610659565b005b34801561043e57600080fd5b5061045960048036038101906104549190610fdc565b610805565b005b34801561046757600080fd5b5061047061091b565b005b34801561047e57600080fd5b5061049960048036038101906104949190610fb3565b6109ab565b6040516104a6919061133e565b60405180910390f35b3480156104bb57600080fd5b506104c46109f4565b005b3480156104d257600080fd5b506104db610a7c565b005b3480156104e957600080fd5b506104f2610b6c565b6040516104ff919061133e565b60405180910390f35b34801561051457600080fd5b5061051d610b72565b60405161052a919061133e565b60405180910390f35b34801561053f57600080fd5b50610548610b78565b60405161055591906111c8565b60405180910390f35b34801561056a57600080fd5b50610573610ba1565b604051610580919061133e565b60405180910390f35b34801561059557600080fd5b5061059e610ba7565b005b3480156105ac57600080fd5b506105b5610d58565b6040516105c291906111e3565b60405180910390f35b3480156105d757600080fd5b506105e0610d6b565b6040516105ed919061133e565b60405180910390f35b34801561060257600080fd5b5061061d60048036038101906106189190610fb3565b610d71565b005b6000818361062d9190611375565b905092915050565b60085481565b60016020528060005260406000206000915090505481565b60055481565b600960009054906101000a900460ff166106a8576040517f08c379a000000000000000000000000000000000000000000000000000000000815260040161069f9061127e565b60405180910390fd5b67016345785d8a0000600160003373ffffffffffffffffffffffffffffffffffffffff1673ffffffffffffffffffffffffffffffffffffffff168152602001908152602001600020541015610732576040517f08c379a0000000000000000000000000000000000000000000000000000000008152600401610729906112be565b60405180910390fd5b600061074b600654600554610e6990919063ffffffff16565b90506000600160003373ffffffffffffffffffffffffffffffffffffffff1673ffffffffffffffffffffffffffffffffffffffff168152602001908152602001600020819055506000803373ffffffffffffffffffffffffffffffffffffffff16836040516107b9906111b3565b60006040518083038185875af1925050503d80600081146107f6576040519150601f19603f3d011682016040523d82523d6000602084013e6107fb565b606091505b5091509150505050565b61080d610e7f565b73ffffffffffffffffffffffffffffffffffffffff1661082b610b78565b73ffffffffffffffffffffffffffffffffffffffff1614610881576040517f08c379a0000000000000000000000000000000000000000000000000000000008152600401610878906112de565b60405180910390fd5b6004548110156108c6576040517f08c379a00000000000000000000000000000000000000000000000000000000081526004016108bd906112fe565b60405180910390fd5b67016345785d8a0000811015610911576040517f08c379a00000000000000000000000000000000000000000000000000000000081526004016109089061129e565b60405180910390fd5b8060038190555050565b62278d0060075461092c9190611375565b42101580156109485750600960009054906101000a900460ff16155b610987576040517f08c379a000000000000000000000000000000000000000000000000000000000815260040161097e9061131e565b60405180910390fd5b6001600960006101000a81548160ff02191690831515021790555042600881905550565b6000600160008373ffffffffffffffffffffffffffffffffffffffff1673ffffffffffffffffffffffffffffffffffffffff168152602001908152602001600020549050919050565b6109fc610e7f565b73ffffffffffffffffffffffffffffffffffffffff16610a1a610b78565b73ffffffffffffffffffffffffffffffffffffffff1614610a70576040517f08c379a0000000000000000000000000000000000000000000000000000000008152600401610a67906112de565b60405180910390fd5b610a7a6000610e87565b565b610a84610e7f565b73ffffffffffffffffffffffffffffffffffffffff16610aa2610b78565b73ffffffffffffffffffffffffffffffffffffffff1614610af8576040517f08c379a0000000000000000000000000000000000000000000000000000000008152600401610aef906112de565b60405180910390fd5b600960009054906101000a900460ff1615610b48576040517f08c379a0000000000000000000000000000000000000000000000000000000008152600401610b3f9061121e565b60405180910390fd5b6001600960006101000a81548160ff02191690831515021790555042600881905550565b60075481565b60035481565b60008060009054906101000a900473ffffffffffffffffffffffffffffffffffffffff16905090565b60065481565b610baf610e7f565b73ffffffffffffffffffffffffffffffffffffffff16610bcd610b78565b73ffffffffffffffffffffffffffffffffffffffff1614610c23576040517f08c379a0000000000000000000000000000000000000000000000000000000008152600401610c1a906112de565b60405180910390fd5b62093a80600854610c349190611375565b421015610c4057600080fd5b60005b600280549050811015610d0d5760006001600060028481548110610c90577f4e487b7100000000000000000000000000000000000000000000000000000000600052603260045260246000fd5b9060005260206000200160009054906101000a900473ffffffffffffffffffffffffffffffffffffffff1673ffffffffffffffffffffffffffffffffffffffff1673ffffffffffffffffffffffffffffffffffffffff16815260200190815260200160002081905550600181610d069190611375565b9050610c43565b5060006004819055506000600581905550600060068190555060026000610d349190610f4b565b6000600960006101000a81548160ff02191690831515021790555042600781905550565b600960009054906101000a900460ff1681565b60045481565b610d79610e7f565b73ffffffffffffffffffffffffffffffffffffffff16610d97610b78565b73ffffffffffffffffffffffffffffffffffffffff1614610ded576040517f08c379a0000000000000000000000000000000000000000000000000000000008152600401610de4906112de565b60405180910390fd5b600073ffffffffffffffffffffffffffffffffffffffff168173ffffffffffffffffffffffffffffffffffffffff161415610e5d576040517f08c379a0000000000000000000000000000000000000000000000000000000008152600401610e54906111fe565b60405180910390fd5b610e6681610e87565b50565b60008183610e7791906113cb565b905092915050565b600033905090565b60008060009054906101000a900473ffffffffffffffffffffffffffffffffffffffff169050816000806101000a81548173ffffffffffffffffffffffffffffffffffffffff021916908373ffffffffffffffffffffffffffffffffffffffff1602179055508173ffffffffffffffffffffffffffffffffffffffff168173ffffffffffffffffffffffffffffffffffffffff167f8be0079c531659141344cd1fd0a4f28419497f9722a3daafe3b4186f6b6457e060405160405180910390a35050565b5080546000825590600052602060002090810190610f699190610f6c565b50565b5b80821115610f85576000816000905550600101610f6d565b5090565b600081359050610f98816117bb565b92915050565b600081359050610fad816117d2565b92915050565b600060208284031215610fc557600080fd5b6000610fd384828501610f89565b91505092915050565b600060208284031215610fee57600080fd5b6000610ffc84828501610f9e565b91505092915050565b61100e816113fc565b82525050565b61101d8161140e565b82525050565b6000611030602683611364565b915061103b826114a2565b604082019050919050565b6000611053602883611364565b915061105e826114f1565b604082019050919050565b6000611076602b83611364565b915061108182611540565b604082019050919050565b6000611099603383611364565b91506110a48261158f565b604082019050919050565b60006110bc602683611364565b91506110c7826115de565b604082019050919050565b60006110df602c83611364565b91506110ea8261162d565b604082019050919050565b6000611102603083611364565b915061110d8261167c565b604082019050919050565b6000611125602083611364565b9150611130826116cb565b602082019050919050565b6000611148600083611359565b9150611153826116f4565b600082019050919050565b600061116b603683611364565b9150611176826116f7565b604082019050919050565b600061118e604c83611364565b915061119982611746565b606082019050919050565b6111ad8161143a565b82525050565b60006111be8261113b565b9150819050919050565b60006020820190506111dd6000830184611005565b92915050565b60006020820190506111f86000830184611014565b92915050565b6000602082019050818103600083015261121781611023565b9050919050565b6000602082019050818103600083015261123781611046565b9050919050565b6000602082019050818103600083015261125781611069565b9050919050565b600060208201905081810360008301526112778161108c565b9050919050565b60006020820190508181036000830152611297816110af565b9050919050565b600060208201905081810360008301526112b7816110d2565b9050919050565b600060208201905081810360008301526112d7816110f5565b9050919050565b600060208201905081810360008301526112f781611118565b9050919050565b600060208201905081810360008301526113178161115e565b9050919050565b6000602082019050818103600083015261133781611181565b9050919050565b600060208201905061135360008301846111a4565b92915050565b600081905092915050565b600082825260208201905092915050565b60006113808261143a565b915061138b8361143a565b9250827fffffffffffffffffffffffffffffffffffffffffffffffffffffffffffffffff038211156113c0576113bf611444565b5b828201905092915050565b60006113d68261143a565b91506113e18361143a565b9250826113f1576113f0611473565b5b828204905092915050565b60006114078261141a565b9050919050565b60008115159050919050565b600073ffffffffffffffffffffffffffffffffffffffff82169050919050565b6000819050919050565b7f4e487b7100000000000000000000000000000000000000000000000000000000600052601160045260246000fd5b7f4e487b7100000000000000000000000000000000000000000000000000000000600052601260045260246000fd5b7f4f776e61626c653a206e6577206f776e657220697320746865207a65726f206160008201527f6464726573730000000000000000000000000000000000000000000000000000602082015250565b7f6c6f636b436f6e74726163743a20636f6e747261637420697320616c7265616460008201527f79206c6f636b6564000000000000000000000000000000000000000000000000602082015250565b7f436f6e747269627574653a2063616e6e6f7420636f6e74726962757465206d6f60008201527f7265207468616e206d6178000000000000000000000000000000000000000000602082015250565b7f436f6e747269627574653a2067616d65206973206c6f636b6564206f72206d7360008201527f672e76616c7565203c20302e3120657468657200000000000000000000000000602082015250565b7f77697468647261773a2067616d6520686173206e6f74206265656e206c6f636b60008201527f6564207965740000000000000000000000000000000000000000000000000000602082015250565b7f7570646174654d61783a205f6e65774d617820697320736d616c6c657220746860008201527f616e20302e312065746865720000000000000000000000000000000000000000602082015250565b7f77697468647261773a20796f7520617265206e6f7420656c696769626c65207460008201527f6f2077697468647261772066756e647300000000000000000000000000000000602082015250565b7f4f776e61626c653a2063616c6c6572206973206e6f7420746865206f776e6572600082015250565b50565b7f7570646174654d61783a205f6e65774d617820697320736d616c6c657220746860008201527f616e206c617267657374436f6e747269627574696f6e00000000000000000000602082015250565b7f6c6f636b436f6e74726163744f6e54696d653a2031206d6f6e7468206861732060008201527f6e6f7420706173736564206f722074686520636f6e747261637420697320616c60208201527f7265616479206c6f636b65640000000000000000000000000000000000000000604082015250565b6117c4816113fc565b81146117cf57600080fd5b50565b6117db8161143a565b81146117e657600080fd5b5056fea264697066735822122030fa876175829137f7313555bd9bf1b5a539a7053b4429ed4524f784fad0451d64736f6c63430008040033",
  "linkReferences": {},
  "deployedLinkReferences": {}
}