{
  "_format": "hh-sol-artifact-1",
  "contractName": "EvenlyDistribute",
  "sourceName": "contracts/EvenlyDistribute.sol",
  "abi": [
    {
      "inputs": [],
      "stateMutability": "nonpayable",
      "type": "constructor"
    },
    {
      "anonymous": false,
      "inputs": [
        {
          "indexed": true,
          "internalType": "address",
          "name": "previousOwner",
          "type": "address"
        },
        {
          "indexed": true,
          "internalType": "address",
          "name": "newOwner",
          "type": "address"
        }
      ],
      "name": "OwnershipTransferred",
      "type": "event"
    },
    {
      "stateMutability": "payable",
      "type": "fallback"
    },
    {
      "inputs": [
        {
          "internalType": "address",
          "name": "",
          "type": "address"
        }
      ],
      "name": "balances",
      "outputs": [
        {
          "internalType": "uint256",
          "name": "",
          "type": "uint256"
        }
      ],
      "stateMutability": "view",
      "type": "function"
    },
    {
      "inputs": [],
      "name": "lockContract",
      "outputs": [],
      "stateMutability": "nonpayable",
      "type": "function"
    },
    {
      "inputs": [],
      "name": "lockContractOnTime",
      "outputs": [],
      "stateMutability": "nonpayable",
      "type": "function"
    },
    {
      "inputs": [],
      "name": "maxContribution",
      "outputs": [
        {
          "internalType": "uint256",
          "name": "",
          "type": "uint256"
        }
      ],
      "stateMutability": "view",
      "type": "function"
    },
    {
      "inputs": [],
      "name": "owner",
      "outputs": [
        {
          "internalType": "address",
          "name": "",
          "type": "address"
        }
      ],
      "stateMutability": "view",
      "type": "function"
    },
    {
      "inputs": [],
      "name": "renounceOwnership",
      "outputs": [],
      "stateMutability": "nonpayable",
      "type": "function"
    },
    {
      "inputs": [],
      "name": "resetGame",
      "outputs": [],
      "stateMutability": "nonpayable",
      "type": "function"
    },
    {
      "inputs": [],
      "name": "startTime",
      "outputs": [
        {
          "internalType": "uint256",
          "name": "",
          "type": "uint256"
        }
      ],
      "stateMutability": "view",
      "type": "function"
    },
    {
      "inputs": [
        {
          "internalType": "address",
          "name": "newOwner",
          "type": "address"
        }
      ],
      "name": "transferOwnership",
      "outputs": [],
      "stateMutability": "nonpayable",
      "type": "function"
    },
    {
      "inputs": [
        {
          "internalType": "uint256",
          "name": "_newMax",
          "type": "uint256"
        }
      ],
      "name": "updateMax",
      "outputs": [],
      "stateMutability": "nonpayable",
      "type": "function"
    },
    {
      "inputs": [],
      "name": "withdraw",
      "outputs": [],
      "stateMutability": "nonpayable",
      "type": "function"
    }
  ],
  "bytecode": "0x608060405234801561001057600080fd5b5061002d61002261005460201b60201c565b61005c60201b60201c565b6000600260006101000a81548160ff02191690831515021790555042600781905550610120565b600033905090565b60008060009054906101000a900473ffffffffffffffffffffffffffffffffffffffff169050816000806101000a81548173ffffffffffffffffffffffffffffffffffffffff021916908373ffffffffffffffffffffffffffffffffffffffff1602179055508173ffffffffffffffffffffffffffffffffffffffff168173ffffffffffffffffffffffffffffffffffffffff167f8be0079c531659141344cd1fd0a4f28419497f9722a3daafe3b4186f6b6457e060405160405180910390a35050565b61157b8061012f6000396000f3fe6080604052600436106100a05760003560e01c8063753868e311610064578063753868e3146103d157806378e97925146103e85780638d3d6576146104135780638da5cb5b1461043e578063bb47221914610469578063f2fde38b14610480576100a1565b806327e235e3146103265780633ccfd60b14610363578063444a1cec1461037a578063465ab7db146103a3578063715018a6146103ba576100a1565b5b600260009054906101000a900460ff161580156100c6575067016345785d8a00003410155b610105576040517f08c379a00000000000000000000000000000000000000000000000000000000081526004016100fc906112df565b60405180910390fd5b60035434600160003373ffffffffffffffffffffffffffffffffffffffff1673ffffffffffffffffffffffffffffffffffffffff1681526020019081526020016000205461015391906113f6565b1115610194576040517f08c379a000000000000000000000000000000000000000000000000000000000815260040161018b906112bf565b60405180910390fd5b60003490506000600160003373ffffffffffffffffffffffffffffffffffffffff1673ffffffffffffffffffffffffffffffffffffffff168152602001908152602001600020541415610261576101f760016006546104a990919063ffffffff16565b6006819055506009339080600181540180825580915050600190039060005260206000200160009091909190916101000a81548173ffffffffffffffffffffffffffffffffffffffff021916908373ffffffffffffffffffffffffffffffffffffffff1602179055505b60045481111561027357806004819055505b6102c581600160003373ffffffffffffffffffffffffffffffffffffffff1673ffffffffffffffffffffffffffffffffffffffff168152602001908152602001600020546104a990919063ffffffff16565b600160003373ffffffffffffffffffffffffffffffffffffffff1673ffffffffffffffffffffffffffffffffffffffff1681526020019081526020016000208190555061031d816005546104a990919063ffffffff16565b60058190555050005b34801561033257600080fd5b5061034d60048036038101906103489190610dc9565b6104bf565b60405161035a91906113bf565b60405180910390f35b34801561036f57600080fd5b506103786104d7565b005b34801561038657600080fd5b506103a1600480360381019061039c9190610df2565b610683565b005b3480156103af57600080fd5b506103b8610799565b005b3480156103c657600080fd5b506103cf610829565b005b3480156103dd57600080fd5b506103e66108b1565b005b3480156103f457600080fd5b506103fd6109a1565b60405161040a91906113bf565b60405180910390f35b34801561041f57600080fd5b506104286109a7565b60405161043591906113bf565b60405180910390f35b34801561044a57600080fd5b506104536109ad565b6040516104609190611264565b60405180910390f35b34801561047557600080fd5b5061047e6109d6565b005b34801561048c57600080fd5b506104a760048036038101906104a29190610dc9565b610b87565b005b600081836104b791906113f6565b905092915050565b60016020528060005260406000206000915090505481565b600260009054906101000a900460ff16610526576040517f08c379a000000000000000000000000000000000000000000000000000000000815260040161051d906112ff565b60405180910390fd5b67016345785d8a0000600160003373ffffffffffffffffffffffffffffffffffffffff1673ffffffffffffffffffffffffffffffffffffffff1681526020019081526020016000205410156105b0576040517f08c379a00000000000000000000000000000000000000000000000000000000081526004016105a79061133f565b60405180910390fd5b60006105c9600654600554610c7f90919063ffffffff16565b90506000600160003373ffffffffffffffffffffffffffffffffffffffff1673ffffffffffffffffffffffffffffffffffffffff168152602001908152602001600020819055506000803373ffffffffffffffffffffffffffffffffffffffff16836040516106379061124f565b60006040518083038185875af1925050503d8060008114610674576040519150601f19603f3d011682016040523d82523d6000602084013e610679565b606091505b5091509150505050565b61068b610c95565b73ffffffffffffffffffffffffffffffffffffffff166106a96109ad565b73ffffffffffffffffffffffffffffffffffffffff16146106ff576040517f08c379a00000000000000000000000000000000000000000000000000000000081526004016106f69061135f565b60405180910390fd5b600454811015610744576040517f08c379a000000000000000000000000000000000000000000000000000000000815260040161073b9061137f565b60405180910390fd5b67016345785d8a000081101561078f576040517f08c379a00000000000000000000000000000000000000000000000000000000081526004016107869061131f565b60405180910390fd5b8060038190555050565b62278d006007546107aa91906113f6565b42101580156107c65750600260009054906101000a900460ff16155b610805576040517f08c379a00000000000000000000000000000000000000000000000000000000081526004016107fc9061139f565b60405180910390fd5b6001600260006101000a81548160ff02191690831515021790555042600881905550565b610831610c95565b73ffffffffffffffffffffffffffffffffffffffff1661084f6109ad565b73ffffffffffffffffffffffffffffffffffffffff16146108a5576040517f08c379a000000000000000000000000000000000000000000000000000000000815260040161089c9061135f565b60405180910390fd5b6108af6000610c9d565b565b6108b9610c95565b73ffffffffffffffffffffffffffffffffffffffff166108d76109ad565b73ffffffffffffffffffffffffffffffffffffffff161461092d576040517f08c379a00000000000000000000000000000000000000000000000000000000081526004016109249061135f565b60405180910390fd5b600260009054906101000a900460ff161561097d576040517f08c379a00000000000000000000000000000000000000000000000000000000081526004016109749061129f565b60405180910390fd5b6001600260006101000a81548160ff02191690831515021790555042600881905550565b60075481565b60035481565b60008060009054906101000a900473ffffffffffffffffffffffffffffffffffffffff16905090565b6109de610c95565b73ffffffffffffffffffffffffffffffffffffffff166109fc6109ad565b73ffffffffffffffffffffffffffffffffffffffff1614610a52576040517f08c379a0000000000000000000000000000000000000000000000000000000008152600401610a499061135f565b60405180910390fd5b62093a80600854610a6391906113f6565b421015610a6f57600080fd5b60005b600980549050811015610b3c5760006001600060098481548110610abf577f4e487b7100000000000000000000000000000000000000000000000000000000600052603260045260246000fd5b9060005260206000200160009054906101000a900473ffffffffffffffffffffffffffffffffffffffff1673ffffffffffffffffffffffffffffffffffffffff1673ffffffffffffffffffffffffffffffffffffffff16815260200190815260200160002081905550600181610b3591906113f6565b9050610a72565b5060006004819055506000600581905550600060068190555060096000610b639190610d61565b6000600260006101000a81548160ff02191690831515021790555042600781905550565b610b8f610c95565b73ffffffffffffffffffffffffffffffffffffffff16610bad6109ad565b73ffffffffffffffffffffffffffffffffffffffff1614610c03576040517f08c379a0000000000000000000000000000000000000000000000000000000008152600401610bfa9061135f565b60405180910390fd5b600073ffffffffffffffffffffffffffffffffffffffff168173ffffffffffffffffffffffffffffffffffffffff161415610c73576040517f08c379a0000000000000000000000000000000000000000000000000000000008152600401610c6a9061127f565b60405180910390fd5b610c7c81610c9d565b50565b60008183610c8d919061144c565b905092915050565b600033905090565b60008060009054906101000a900473ffffffffffffffffffffffffffffffffffffffff169050816000806101000a81548173ffffffffffffffffffffffffffffffffffffffff021916908373ffffffffffffffffffffffffffffffffffffffff1602179055508173ffffffffffffffffffffffffffffffffffffffff168173ffffffffffffffffffffffffffffffffffffffff167f8be0079c531659141344cd1fd0a4f28419497f9722a3daafe3b4186f6b6457e060405160405180910390a35050565b5080546000825590600052602060002090810190610d7f9190610d82565b50565b5b80821115610d9b576000816000905550600101610d83565b5090565b600081359050610dae81611517565b92915050565b600081359050610dc38161152e565b92915050565b600060208284031215610ddb57600080fd5b6000610de984828501610d9f565b91505092915050565b600060208284031215610e0457600080fd5b6000610e1284828501610db4565b91505092915050565b610e248161147d565b82525050565b6000610e376026836113e5565b91507f4f776e61626c653a206e6577206f776e657220697320746865207a65726f206160008301527f64647265737300000000000000000000000000000000000000000000000000006020830152604082019050919050565b6000610e9d6028836113e5565b91507f6c6f636b436f6e74726163743a20636f6e747261637420697320616c7265616460008301527f79206c6f636b65640000000000000000000000000000000000000000000000006020830152604082019050919050565b6000610f03602b836113e5565b91507f436f6e747269627574653a2063616e6e6f7420636f6e74726962757465206d6f60008301527f7265207468616e206d61780000000000000000000000000000000000000000006020830152604082019050919050565b6000610f696033836113e5565b91507f436f6e747269627574653a2067616d65206973206c6f636b6564206f72206d7360008301527f672e76616c7565203c20302e31206574686572000000000000000000000000006020830152604082019050919050565b6000610fcf6026836113e5565b91507f77697468647261773a2067616d6520686173206e6f74206265656e206c6f636b60008301527f65642079657400000000000000000000000000000000000000000000000000006020830152604082019050919050565b6000611035602c836113e5565b91507f7570646174654d61783a205f6e65774d617820697320736d616c6c657220746860008301527f616e20302e3120657468657200000000000000000000000000000000000000006020830152604082019050919050565b600061109b6030836113e5565b91507f77697468647261773a20796f7520617265206e6f7420656c696769626c65207460008301527f6f2077697468647261772066756e6473000000000000000000000000000000006020830152604082019050919050565b60006111016020836113e5565b91507f4f776e61626c653a2063616c6c6572206973206e6f7420746865206f776e65726000830152602082019050919050565b60006111416000836113da565b9150600082019050919050565b600061115b6036836113e5565b91507f7570646174654d61783a205f6e65774d617820697320736d616c6c657220746860008301527f616e206c617267657374436f6e747269627574696f6e000000000000000000006020830152604082019050919050565b60006111c1604c836113e5565b91507f6c6f636b436f6e74726163744f6e54696d653a2031206d6f6e7468206861732060008301527f6e6f7420706173736564206f722074686520636f6e747261637420697320616c60208301527f7265616479206c6f636b656400000000000000000000000000000000000000006040830152606082019050919050565b611249816114af565b82525050565b600061125a82611134565b9150819050919050565b60006020820190506112796000830184610e1b565b92915050565b6000602082019050818103600083015261129881610e2a565b9050919050565b600060208201905081810360008301526112b881610e90565b9050919050565b600060208201905081810360008301526112d881610ef6565b9050919050565b600060208201905081810360008301526112f881610f5c565b9050919050565b6000602082019050818103600083015261131881610fc2565b9050919050565b6000602082019050818103600083015261133881611028565b9050919050565b600060208201905081810360008301526113588161108e565b9050919050565b60006020820190508181036000830152611378816110f4565b9050919050565b600060208201905081810360008301526113988161114e565b9050919050565b600060208201905081810360008301526113b8816111b4565b9050919050565b60006020820190506113d46000830184611240565b92915050565b600081905092915050565b600082825260208201905092915050565b6000611401826114af565b915061140c836114af565b9250827fffffffffffffffffffffffffffffffffffffffffffffffffffffffffffffffff03821115611441576114406114b9565b5b828201905092915050565b6000611457826114af565b9150611462836114af565b925082611472576114716114e8565b5b828204905092915050565b60006114888261148f565b9050919050565b600073ffffffffffffffffffffffffffffffffffffffff82169050919050565b6000819050919050565b7f4e487b7100000000000000000000000000000000000000000000000000000000600052601160045260246000fd5b7f4e487b7100000000000000000000000000000000000000000000000000000000600052601260045260246000fd5b6115208161147d565b811461152b57600080fd5b50565b611537816114af565b811461154257600080fd5b5056fea26469706673582212207cfb3412862db1ad6d36c95091b4cdb764dd2ba0723d8be6ce2c045f446efb6c64736f6c63430008000033",
  "linkReferences": {},
  "deployedLinkReferences": {}
}