{
  "_format": "hh-sol-artifact-1",
  "contractName": "EvenlyDistribute",
  "sourceName": "contracts/EvenlyDistribute.sol",
  "abi": [
    {
      "inputs": [],
      "stateMutability": "nonpayable",
      "type": "constructor"
    },
    {
      "anonymous": false,
      "inputs": [
        {
          "indexed": true,
          "internalType": "address",
          "name": "previousOwner",
          "type": "address"
        },
        {
          "indexed": true,
          "internalType": "address",
          "name": "newOwner",
          "type": "address"
        }
      ],
      "name": "OwnershipTransferred",
      "type": "event"
    },
    {
      "stateMutability": "payable",
      "type": "fallback"
    },
    {
      "inputs": [
        {
          "internalType": "address",
          "name": "",
          "type": "address"
        }
      ],
      "name": "balances",
      "outputs": [
        {
          "internalType": "uint256",
          "name": "",
          "type": "uint256"
        }
      ],
      "stateMutability": "view",
      "type": "function"
    },
    {
      "inputs": [
        {
          "internalType": "address",
          "name": "_address",
          "type": "address"
        }
      ],
      "name": "checkBalance",
      "outputs": [
        {
          "internalType": "uint256",
          "name": "",
          "type": "uint256"
        }
      ],
      "stateMutability": "view",
      "type": "function"
    },
    {
      "inputs": [],
      "name": "lockContract",
      "outputs": [],
      "stateMutability": "nonpayable",
      "type": "function"
    },
    {
      "inputs": [],
      "name": "lockContractOnTime",
      "outputs": [],
      "stateMutability": "nonpayable",
      "type": "function"
    },
    {
      "inputs": [],
      "name": "maxContribution",
      "outputs": [
        {
          "internalType": "uint256",
          "name": "",
          "type": "uint256"
        }
      ],
      "stateMutability": "view",
      "type": "function"
    },
    {
      "inputs": [],
      "name": "owner",
      "outputs": [
        {
          "internalType": "address",
          "name": "",
          "type": "address"
        }
      ],
      "stateMutability": "view",
      "type": "function"
    },
    {
      "inputs": [],
      "name": "renounceOwnership",
      "outputs": [],
      "stateMutability": "nonpayable",
      "type": "function"
    },
    {
      "inputs": [],
      "name": "resetGame",
      "outputs": [],
      "stateMutability": "nonpayable",
      "type": "function"
    },
    {
      "inputs": [],
      "name": "startTime",
      "outputs": [
        {
          "internalType": "uint256",
          "name": "",
          "type": "uint256"
        }
      ],
      "stateMutability": "view",
      "type": "function"
    },
    {
      "inputs": [
        {
          "internalType": "address",
          "name": "newOwner",
          "type": "address"
        }
      ],
      "name": "transferOwnership",
      "outputs": [],
      "stateMutability": "nonpayable",
      "type": "function"
    },
    {
      "inputs": [
        {
          "internalType": "uint256",
          "name": "_newMax",
          "type": "uint256"
        }
      ],
      "name": "updateMax",
      "outputs": [],
      "stateMutability": "nonpayable",
      "type": "function"
    },
    {
      "inputs": [],
      "name": "withdraw",
      "outputs": [],
      "stateMutability": "nonpayable",
      "type": "function"
    }
  ],
  "bytecode": "0x608060405234801561001057600080fd5b5061002d61002261005460201b60201c565b61005c60201b60201c565b6000600260006101000a81548160ff02191690831515021790555042600781905550610120565b600033905090565b60008060009054906101000a900473ffffffffffffffffffffffffffffffffffffffff169050816000806101000a81548173ffffffffffffffffffffffffffffffffffffffff021916908373ffffffffffffffffffffffffffffffffffffffff1602179055508173ffffffffffffffffffffffffffffffffffffffff168173ffffffffffffffffffffffffffffffffffffffff167f8be0079c531659141344cd1fd0a4f28419497f9722a3daafe3b4186f6b6457e060405160405180910390a35050565b6116908061012f6000396000f3fe6080604052600436106100ab5760003560e01c8063753868e311610064578063753868e31461041957806378e97925146104305780638d3d65761461045b5780638da5cb5b14610486578063bb472219146104b1578063f2fde38b146104c8576100ac565b806327e235e3146103315780633ccfd60b1461036e578063444a1cec14610385578063465ab7db146103ae5780635f515226146103c5578063715018a614610402576100ac565b5b600260009054906101000a900460ff161580156100d1575067016345785d8a00003410155b610110576040517f08c379a0000000000000000000000000000000000000000000000000000000008152600401610107906110db565b60405180910390fd5b60035434600160003373ffffffffffffffffffffffffffffffffffffffff1673ffffffffffffffffffffffffffffffffffffffff1681526020019081526020016000205461015e91906111f2565b111561019f576040517f08c379a0000000000000000000000000000000000000000000000000000000008152600401610196906110bb565b60405180910390fd5b60003490506000600160003373ffffffffffffffffffffffffffffffffffffffff1673ffffffffffffffffffffffffffffffffffffffff16815260200190815260200160002054141561026c5761020260016006546104f190919063ffffffff16565b6006819055506009339080600181540180825580915050600190039060005260206000200160009091909190916101000a81548173ffffffffffffffffffffffffffffffffffffffff021916908373ffffffffffffffffffffffffffffffffffffffff1602179055505b60045481111561027e57806004819055505b6102d081600160003373ffffffffffffffffffffffffffffffffffffffff1673ffffffffffffffffffffffffffffffffffffffff168152602001908152602001600020546104f190919063ffffffff16565b600160003373ffffffffffffffffffffffffffffffffffffffff1673ffffffffffffffffffffffffffffffffffffffff16815260200190815260200160002081905550610328816005546104f190919063ffffffff16565b60058190555050005b34801561033d57600080fd5b5061035860048036038101906103539190610e5a565b610507565b60405161036591906111bb565b60405180910390f35b34801561037a57600080fd5b5061038361051f565b005b34801561039157600080fd5b506103ac60048036038101906103a79190610e83565b6106cb565b005b3480156103ba57600080fd5b506103c36107e1565b005b3480156103d157600080fd5b506103ec60048036038101906103e79190610e5a565b610871565b6040516103f991906111bb565b60405180910390f35b34801561040e57600080fd5b506104176108ba565b005b34801561042557600080fd5b5061042e610942565b005b34801561043c57600080fd5b50610445610a32565b60405161045291906111bb565b60405180910390f35b34801561046757600080fd5b50610470610a38565b60405161047d91906111bb565b60405180910390f35b34801561049257600080fd5b5061049b610a3e565b6040516104a89190611060565b60405180910390f35b3480156104bd57600080fd5b506104c6610a67565b005b3480156104d457600080fd5b506104ef60048036038101906104ea9190610e5a565b610c18565b005b600081836104ff91906111f2565b905092915050565b60016020528060005260406000206000915090505481565b600260009054906101000a900460ff1661056e576040517f08c379a0000000000000000000000000000000000000000000000000000000008152600401610565906110fb565b60405180910390fd5b67016345785d8a0000600160003373ffffffffffffffffffffffffffffffffffffffff1673ffffffffffffffffffffffffffffffffffffffff1681526020019081526020016000205410156105f8576040517f08c379a00000000000000000000000000000000000000000000000000000000081526004016105ef9061113b565b60405180910390fd5b6000610611600654600554610d1090919063ffffffff16565b90506000600160003373ffffffffffffffffffffffffffffffffffffffff1673ffffffffffffffffffffffffffffffffffffffff168152602001908152602001600020819055506000803373ffffffffffffffffffffffffffffffffffffffff168360405161067f9061104b565b60006040518083038185875af1925050503d80600081146106bc576040519150601f19603f3d011682016040523d82523d6000602084013e6106c1565b606091505b5091509150505050565b6106d3610d26565b73ffffffffffffffffffffffffffffffffffffffff166106f1610a3e565b73ffffffffffffffffffffffffffffffffffffffff1614610747576040517f08c379a000000000000000000000000000000000000000000000000000000000815260040161073e9061115b565b60405180910390fd5b60045481101561078c576040517f08c379a00000000000000000000000000000000000000000000000000000000081526004016107839061117b565b60405180910390fd5b67016345785d8a00008110156107d7576040517f08c379a00000000000000000000000000000000000000000000000000000000081526004016107ce9061111b565b60405180910390fd5b8060038190555050565b62278d006007546107f291906111f2565b421015801561080e5750600260009054906101000a900460ff16155b61084d576040517f08c379a00000000000000000000000000000000000000000000000000000000081526004016108449061119b565b60405180910390fd5b6001600260006101000a81548160ff02191690831515021790555042600881905550565b6000600160008373ffffffffffffffffffffffffffffffffffffffff1673ffffffffffffffffffffffffffffffffffffffff168152602001908152602001600020549050919050565b6108c2610d26565b73ffffffffffffffffffffffffffffffffffffffff166108e0610a3e565b73ffffffffffffffffffffffffffffffffffffffff1614610936576040517f08c379a000000000000000000000000000000000000000000000000000000000815260040161092d9061115b565b60405180910390fd5b6109406000610d2e565b565b61094a610d26565b73ffffffffffffffffffffffffffffffffffffffff16610968610a3e565b73ffffffffffffffffffffffffffffffffffffffff16146109be576040517f08c379a00000000000000000000000000000000000000000000000000000000081526004016109b59061115b565b60405180910390fd5b600260009054906101000a900460ff1615610a0e576040517f08c379a0000000000000000000000000000000000000000000000000000000008152600401610a059061109b565b60405180910390fd5b6001600260006101000a81548160ff02191690831515021790555042600881905550565b60075481565b60035481565b60008060009054906101000a900473ffffffffffffffffffffffffffffffffffffffff16905090565b610a6f610d26565b73ffffffffffffffffffffffffffffffffffffffff16610a8d610a3e565b73ffffffffffffffffffffffffffffffffffffffff1614610ae3576040517f08c379a0000000000000000000000000000000000000000000000000000000008152600401610ada9061115b565b60405180910390fd5b62093a80600854610af491906111f2565b421015610b0057600080fd5b60005b600980549050811015610bcd5760006001600060098481548110610b50577f4e487b7100000000000000000000000000000000000000000000000000000000600052603260045260246000fd5b9060005260206000200160009054906101000a900473ffffffffffffffffffffffffffffffffffffffff1673ffffffffffffffffffffffffffffffffffffffff1673ffffffffffffffffffffffffffffffffffffffff16815260200190815260200160002081905550600181610bc691906111f2565b9050610b03565b5060006004819055506000600581905550600060068190555060096000610bf49190610df2565b6000600260006101000a81548160ff02191690831515021790555042600781905550565b610c20610d26565b73ffffffffffffffffffffffffffffffffffffffff16610c3e610a3e565b73ffffffffffffffffffffffffffffffffffffffff1614610c94576040517f08c379a0000000000000000000000000000000000000000000000000000000008152600401610c8b9061115b565b60405180910390fd5b600073ffffffffffffffffffffffffffffffffffffffff168173ffffffffffffffffffffffffffffffffffffffff161415610d04576040517f08c379a0000000000000000000000000000000000000000000000000000000008152600401610cfb9061107b565b60405180910390fd5b610d0d81610d2e565b50565b60008183610d1e9190611248565b905092915050565b600033905090565b60008060009054906101000a900473ffffffffffffffffffffffffffffffffffffffff169050816000806101000a81548173ffffffffffffffffffffffffffffffffffffffff021916908373ffffffffffffffffffffffffffffffffffffffff1602179055508173ffffffffffffffffffffffffffffffffffffffff168173ffffffffffffffffffffffffffffffffffffffff167f8be0079c531659141344cd1fd0a4f28419497f9722a3daafe3b4186f6b6457e060405160405180910390a35050565b5080546000825590600052602060002090810190610e109190610e13565b50565b5b80821115610e2c576000816000905550600101610e14565b5090565b600081359050610e3f8161162c565b92915050565b600081359050610e5481611643565b92915050565b600060208284031215610e6c57600080fd5b6000610e7a84828501610e30565b91505092915050565b600060208284031215610e9557600080fd5b6000610ea384828501610e45565b91505092915050565b610eb581611279565b82525050565b6000610ec86026836111e1565b9150610ed382611313565b604082019050919050565b6000610eeb6028836111e1565b9150610ef682611362565b604082019050919050565b6000610f0e602b836111e1565b9150610f19826113b1565b604082019050919050565b6000610f316033836111e1565b9150610f3c82611400565b604082019050919050565b6000610f546026836111e1565b9150610f5f8261144f565b604082019050919050565b6000610f77602c836111e1565b9150610f828261149e565b604082019050919050565b6000610f9a6030836111e1565b9150610fa5826114ed565b604082019050919050565b6000610fbd6020836111e1565b9150610fc88261153c565b602082019050919050565b6000610fe06000836111d6565b9150610feb82611565565b600082019050919050565b60006110036036836111e1565b915061100e82611568565b604082019050919050565b6000611026604c836111e1565b9150611031826115b7565b606082019050919050565b611045816112ab565b82525050565b600061105682610fd3565b9150819050919050565b60006020820190506110756000830184610eac565b92915050565b6000602082019050818103600083015261109481610ebb565b9050919050565b600060208201905081810360008301526110b481610ede565b9050919050565b600060208201905081810360008301526110d481610f01565b9050919050565b600060208201905081810360008301526110f481610f24565b9050919050565b6000602082019050818103600083015261111481610f47565b9050919050565b6000602082019050818103600083015261113481610f6a565b9050919050565b6000602082019050818103600083015261115481610f8d565b9050919050565b6000602082019050818103600083015261117481610fb0565b9050919050565b6000602082019050818103600083015261119481610ff6565b9050919050565b600060208201905081810360008301526111b481611019565b9050919050565b60006020820190506111d0600083018461103c565b92915050565b600081905092915050565b600082825260208201905092915050565b60006111fd826112ab565b9150611208836112ab565b9250827fffffffffffffffffffffffffffffffffffffffffffffffffffffffffffffffff0382111561123d5761123c6112b5565b5b828201905092915050565b6000611253826112ab565b915061125e836112ab565b92508261126e5761126d6112e4565b5b828204905092915050565b60006112848261128b565b9050919050565b600073ffffffffffffffffffffffffffffffffffffffff82169050919050565b6000819050919050565b7f4e487b7100000000000000000000000000000000000000000000000000000000600052601160045260246000fd5b7f4e487b7100000000000000000000000000000000000000000000000000000000600052601260045260246000fd5b7f4f776e61626c653a206e6577206f776e657220697320746865207a65726f206160008201527f6464726573730000000000000000000000000000000000000000000000000000602082015250565b7f6c6f636b436f6e74726163743a20636f6e747261637420697320616c7265616460008201527f79206c6f636b6564000000000000000000000000000000000000000000000000602082015250565b7f436f6e747269627574653a2063616e6e6f7420636f6e74726962757465206d6f60008201527f7265207468616e206d6178000000000000000000000000000000000000000000602082015250565b7f436f6e747269627574653a2067616d65206973206c6f636b6564206f72206d7360008201527f672e76616c7565203c20302e3120657468657200000000000000000000000000602082015250565b7f77697468647261773a2067616d6520686173206e6f74206265656e206c6f636b60008201527f6564207965740000000000000000000000000000000000000000000000000000602082015250565b7f7570646174654d61783a205f6e65774d617820697320736d616c6c657220746860008201527f616e20302e312065746865720000000000000000000000000000000000000000602082015250565b7f77697468647261773a20796f7520617265206e6f7420656c696769626c65207460008201527f6f2077697468647261772066756e647300000000000000000000000000000000602082015250565b7f4f776e61626c653a2063616c6c6572206973206e6f7420746865206f776e6572600082015250565b50565b7f7570646174654d61783a205f6e65774d617820697320736d616c6c657220746860008201527f616e206c617267657374436f6e747269627574696f6e00000000000000000000602082015250565b7f6c6f636b436f6e74726163744f6e54696d653a2031206d6f6e7468206861732060008201527f6e6f7420706173736564206f722074686520636f6e747261637420697320616c60208201527f7265616479206c6f636b65640000000000000000000000000000000000000000604082015250565b61163581611279565b811461164057600080fd5b50565b61164c816112ab565b811461165757600080fd5b5056fea26469706673582212201aaa6a83cc4167b91acb67486c7fa61e2e09909819eec66f4dcebf46d1f57c9e64736f6c63430008040033",
  "linkReferences": {},
  "deployedLinkReferences": {}
}